{
  "contractName": "bet",
  "abi": [
    {
      "inputs": [],
      "stateMutability": "payable",
      "type": "constructor",
      "payable": true
    },
    {
      "anonymous": false,
      "inputs": [
        {
          "indexed": false,
          "internalType": "address",
          "name": "sender",
          "type": "address"
        },
        {
          "indexed": false,
          "internalType": "uint256",
          "name": "amount",
          "type": "uint256"
        }
      ],
      "name": "Deposit",
      "type": "event"
    },
    {
      "anonymous": false,
      "inputs": [
        {
          "indexed": false,
          "internalType": "address",
          "name": "addy",
          "type": "address"
        },
        {
          "indexed": false,
          "internalType": "uint256",
          "name": "amount",
          "type": "uint256"
        },
        {
          "components": [
            {
              "internalType": "string",
              "name": "name",
              "type": "string"
            },
            {
              "internalType": "uint256",
              "name": "totalBetAmount",
              "type": "uint256"
            }
          ],
          "indexed": false,
          "internalType": "struct bet.Team",
          "name": "teamBet",
          "type": "tuple"
        }
      ],
      "name": "NewBet",
      "type": "event"
    },
    {
      "anonymous": false,
      "inputs": [
        {
          "indexed": true,
          "internalType": "address",
          "name": "previousOwner",
          "type": "address"
        },
        {
          "indexed": true,
          "internalType": "address",
          "name": "newOwner",
          "type": "address"
        }
      ],
      "name": "OwnershipTransferred",
      "type": "event"
    },
    {
      "anonymous": false,
      "inputs": [
        {
          "indexed": false,
          "internalType": "address",
          "name": "sender",
          "type": "address"
        },
        {
          "indexed": false,
          "internalType": "address",
          "name": "receiver",
          "type": "address"
        },
        {
          "indexed": false,
          "internalType": "uint256",
          "name": "amount",
          "type": "uint256"
        }
      ],
      "name": "Transfer",
      "type": "event"
    },
    {
      "anonymous": false,
      "inputs": [
        {
          "indexed": false,
          "internalType": "address",
          "name": "receiver",
          "type": "address"
        },
        {
          "indexed": false,
          "internalType": "uint256",
          "name": "amount",
          "type": "uint256"
        }
      ],
      "name": "Withdrawal",
      "type": "event"
    },
    {
      "inputs": [
        {
          "internalType": "address",
          "name": "",
          "type": "address"
        }
      ],
      "name": "balances",
      "outputs": [
        {
          "internalType": "uint256",
          "name": "",
          "type": "uint256"
        }
      ],
      "stateMutability": "view",
      "type": "function",
      "constant": true
    },
    {
      "inputs": [
        {
          "internalType": "uint256",
          "name": "",
          "type": "uint256"
        }
      ],
      "name": "bets",
      "outputs": [
        {
          "internalType": "string",
          "name": "name",
          "type": "string"
        },
        {
          "internalType": "address",
          "name": "addy",
          "type": "address"
        },
        {
          "internalType": "uint256",
          "name": "amount",
          "type": "uint256"
        },
        {
          "components": [
            {
              "internalType": "string",
              "name": "name",
              "type": "string"
            },
            {
              "internalType": "uint256",
              "name": "totalBetAmount",
              "type": "uint256"
            }
          ],
          "internalType": "struct bet.Team",
          "name": "teamBet",
          "type": "tuple"
        }
      ],
      "stateMutability": "view",
      "type": "function",
      "constant": true
    },
    {
      "inputs": [],
      "name": "deposit",
      "outputs": [],
      "stateMutability": "payable",
      "type": "function",
      "payable": true
    },
    {
      "inputs": [
        {
          "internalType": "uint256",
          "name": "val",
          "type": "uint256"
        }
      ],
      "name": "depositBro",
      "outputs": [],
      "stateMutability": "payable",
      "type": "function",
      "payable": true
    },
    {
      "inputs": [],
      "name": "isOwner",
      "outputs": [
        {
          "internalType": "bool",
          "name": "",
          "type": "bool"
        }
      ],
      "stateMutability": "view",
      "type": "function",
      "constant": true
    },
    {
      "inputs": [
        {
          "internalType": "address",
          "name": "",
          "type": "address"
        }
      ],
      "name": "numBetsAddress",
      "outputs": [
        {
          "internalType": "uint256",
          "name": "",
          "type": "uint256"
        }
      ],
      "stateMutability": "view",
      "type": "function",
      "constant": true
    },
    {
      "inputs": [],
      "name": "owner",
      "outputs": [
        {
          "internalType": "address",
          "name": "",
          "type": "address"
        }
      ],
      "stateMutability": "view",
      "type": "function",
      "constant": true
    },
    {
      "inputs": [],
      "name": "renounceOwnership",
      "outputs": [],
      "stateMutability": "nonpayable",
      "type": "function"
    },
    {
      "inputs": [
        {
          "internalType": "uint256",
          "name": "",
          "type": "uint256"
        }
      ],
      "name": "teams",
      "outputs": [
        {
          "internalType": "string",
          "name": "name",
          "type": "string"
        },
        {
          "internalType": "uint256",
          "name": "totalBetAmount",
          "type": "uint256"
        }
      ],
      "stateMutability": "view",
      "type": "function",
      "constant": true
    },
    {
      "inputs": [],
      "name": "totalBetMoney",
      "outputs": [
        {
          "internalType": "uint256",
          "name": "",
          "type": "uint256"
        }
      ],
      "stateMutability": "view",
      "type": "function",
      "constant": true
    },
    {
      "inputs": [
        {
          "internalType": "address[]",
          "name": "receivers",
          "type": "address[]"
        },
        {
          "internalType": "uint256",
          "name": "amount",
          "type": "uint256"
        }
      ],
      "name": "transfer",
      "outputs": [],
      "stateMutability": "nonpayable",
      "type": "function"
    },
    {
      "inputs": [
        {
          "internalType": "address",
          "name": "receiver",
          "type": "address"
        },
        {
          "internalType": "uint256",
          "name": "amount",
          "type": "uint256"
        }
      ],
      "name": "transfer",
      "outputs": [],
      "stateMutability": "nonpayable",
      "type": "function"
    },
    {
      "inputs": [
        {
          "internalType": "address",
          "name": "newOwner",
          "type": "address"
        }
      ],
      "name": "transferOwnership",
      "outputs": [],
      "stateMutability": "nonpayable",
      "type": "function"
    },
    {
      "inputs": [
        {
          "internalType": "uint256",
          "name": "amount",
          "type": "uint256"
        }
      ],
      "name": "withdraw",
      "outputs": [],
      "stateMutability": "nonpayable",
      "type": "function"
    },
    {
      "inputs": [
        {
          "internalType": "string",
          "name": "_name",
          "type": "string"
        }
      ],
      "name": "createTeam",
      "outputs": [],
      "stateMutability": "nonpayable",
      "type": "function"
    },
    {
      "inputs": [
        {
          "internalType": "uint256",
          "name": "_teamId",
          "type": "uint256"
        }
      ],
      "name": "getTotalBetAmount",
      "outputs": [
        {
          "internalType": "uint256",
          "name": "",
          "type": "uint256"
        }
      ],
      "stateMutability": "view",
      "type": "function",
      "constant": true
    },
    {
      "inputs": [
        {
          "internalType": "string",
          "name": "_name",
          "type": "string"
        },
        {
          "internalType": "uint256",
          "name": "_teamId",
          "type": "uint256"
        }
      ],
      "name": "createBet",
      "outputs": [],
      "stateMutability": "payable",
      "type": "function",
      "payable": true
    },
    {
      "inputs": [
        {
          "internalType": "uint256",
          "name": "_teamId",
          "type": "uint256"
        }
      ],
      "name": "teamWinDistribution",
      "outputs": [],
      "stateMutability": "payable",
      "type": "function",
      "payable": true
    }
  ],
  "bytecode": "0x6080604052600060055533600160006101000a81548173ffffffffffffffffffffffffffffffffffffffff021916908373ffffffffffffffffffffffffffffffffffffffff160217905550600160009054906101000a900473ffffffffffffffffffffffffffffffffffffffff1673ffffffffffffffffffffffffffffffffffffffff16600073ffffffffffffffffffffffffffffffffffffffff167f8be0079c531659141344cd1fd0a4f28419497f9722a3daafe3b4186f6b6457e060405160405180910390a333600460006101000a81548173ffffffffffffffffffffffffffffffffffffffff021916908373ffffffffffffffffffffffffffffffffffffffff160217905550600360405180604001604052806040518060400160405280600581526020017f7465616d3100000000000000000000000000000000000000000000000000000081525081526020016000815250908060018154018082558091505060019003906000526020600020906002020160009091909190915060008201518160000190805190602001906200019c92919062000250565b50602082015181600101555050600360405180604001604052806040518060400160405280600581526020017f7465616d3200000000000000000000000000000000000000000000000000000081525081526020016000815250908060018154018082558091505060019003906000526020600020906002020160009091909190915060008201518160000190805190602001906200023d92919062000250565b5060208201518160010155505062000365565b8280546200025e906200032f565b90600052602060002090601f016020900481019282620002825760008555620002ce565b82601f106200029d57805160ff1916838001178555620002ce565b82800160010185558215620002ce579182015b82811115620002cd578251825591602001919060010190620002b0565b5b509050620002dd9190620002e1565b5090565b5b80821115620002fc576000816000905550600101620002e2565b5090565b7f4e487b7100000000000000000000000000000000000000000000000000000000600052602260045260246000fd5b600060028204905060018216806200034857607f821691505b602082108114156200035f576200035e62000300565b5b50919050565b612a5c80620003756000396000f3fe6080604052600436106101095760003560e01c8063715018a611610095578063a9059cbb11610064578063a9059cbb14610363578063c8e405151461038c578063d0e30db0146103b7578063d6704206146103c1578063f2fde38b146103dd57610109565b8063715018a6146102cd5780638da5cb5b146102e45780638f32d59b1461030f578063972fa53f1461033a57610109565b80632e1a7d4d116100dc5780632e1a7d4d146101f15780633ed2b77a1461021a5780634610a13114610258578063481972c41461027457806350de367a1461029057610109565b80630e89da561461010e5780631939c1ff1461014b57806322af00fa1461017457806327e235e3146101b4575b600080fd5b34801561011a57600080fd5b5061013560048036038101906101309190611c36565b610406565b6040516101429190611c72565b60405180910390f35b34801561015757600080fd5b50610172600480360381019061016d9190611e44565b610435565b005b34801561018057600080fd5b5061019b60048036038101906101969190611c36565b6105ff565b6040516101ab9493929190611fcd565b60405180910390f35b3480156101c057600080fd5b506101db60048036038101906101d69190612020565b61078d565b6040516101e89190611c72565b60405180910390f35b3480156101fd57600080fd5b5061021860048036038101906102139190611c36565b6107a5565b005b34801561022657600080fd5b50610241600480360381019061023c9190611c36565b6108b7565b60405161024f92919061204d565b60405180910390f35b610272600480360381019061026d9190611c36565b610973565b005b61028e60048036038101906102899190611c36565b610a2a565b005b34801561029c57600080fd5b506102b760048036038101906102b29190612020565b610fa3565b6040516102c49190611c72565b60405180910390f35b3480156102d957600080fd5b506102e2610fbb565b005b3480156102f057600080fd5b506102f961108d565b604051610306919061207d565b60405180910390f35b34801561031b57600080fd5b506103246110b7565b60405161033191906120b3565b60405180910390f35b34801561034657600080fd5b50610361600480360381019061035c9190612183565b61110f565b005b34801561036f57600080fd5b5061038a600480360381019061038591906121cc565b61117c565b005b34801561039857600080fd5b506103a16112e6565b6040516103ae9190611c72565b60405180910390f35b6103bf6112ec565b005b6103db60048036038101906103d6919061220c565b61137c565b005b3480156103e957600080fd5b5061040460048036038101906103ff9190612020565b6118d7565b005b60006003828154811061041c5761041b612268565b5b9060005260206000209060020201600101549050919050565b80825161044291906122c6565b6000803373ffffffffffffffffffffffffffffffffffffffff1673ffffffffffffffffffffffffffffffffffffffff1681526020019081526020016000205410156104c2576040517f08c379a00000000000000000000000000000000000000000000000000000000081526004016104b99061236c565b60405180910390fd5b60005b82518110156105fa577fddf252ad1be2c89b69c2b068fc378daa952ba7f163c4a11628f55a4df523b3ef3384838151811061050357610502612268565b5b60200260200101518460405161051b9392919061238c565b60405180910390a1816000803373ffffffffffffffffffffffffffffffffffffffff1673ffffffffffffffffffffffffffffffffffffffff168152602001908152602001600020600082825461057191906123c3565b925050819055508160008085848151811061058f5761058e612268565b5b602002602001015173ffffffffffffffffffffffffffffffffffffffff1673ffffffffffffffffffffffffffffffffffffffff16815260200190815260200160002060008282546105e091906123f7565b9250508190555080806105f29061244d565b9150506104c5565b505050565b6002818154811061060f57600080fd5b9060005260206000209060050201600091509050806000018054610632906124c5565b80601f016020809104026020016040519081016040528092919081815260200182805461065e906124c5565b80156106ab5780601f10610680576101008083540402835291602001916106ab565b820191906000526020600020905b81548152906001019060200180831161068e57829003601f168201915b5050505050908060010160009054906101000a900473ffffffffffffffffffffffffffffffffffffffff1690806002015490806003016040518060400160405290816000820180546106fc906124c5565b80601f0160208091040260200160405190810160405280929190818152602001828054610728906124c5565b80156107755780601f1061074a57610100808354040283529160200191610775565b820191906000526020600020905b81548152906001019060200180831161075857829003601f168201915b50505050508152602001600182015481525050905084565b60006020528060005260406000206000915090505481565b806000803373ffffffffffffffffffffffffffffffffffffffff1673ffffffffffffffffffffffffffffffffffffffff168152602001908152602001600020541015610826576040517f08c379a000000000000000000000000000000000000000000000000000000000815260040161081d9061236c565b60405180910390fd5b7f7fcf532c15f0a6db0bd6d0e038bea71d30d808c7d98cb3bf7268a95bf5081b6533826040516108579291906124f7565b60405180910390a1806000803373ffffffffffffffffffffffffffffffffffffffff1673ffffffffffffffffffffffffffffffffffffffff16815260200190815260200160002060008282546108ad91906123c3565b9250508190555050565b600381815481106108c757600080fd5b90600052602060002090600202016000915090508060000180546108ea906124c5565b80601f0160208091040260200160405190810160405280929190818152602001828054610916906124c5565b80156109635780601f1061093857610100808354040283529160200191610963565b820191906000526020600020905b81548152906001019060200180831161094657829003601f168201915b5050505050908060010154905082565b7fe1fffcc4923d04b559f4d29a8bfc6cda04eb5b0d3c460751c2402c5c5cc9109c33670de0b6b3a7640000836109a991906122c6565b6040516109b79291906124f7565b60405180910390a1670de0b6b3a7640000816109d391906122c6565b6000803373ffffffffffffffffffffffffffffffffffffffff1673ffffffffffffffffffffffffffffffffffffffff1681526020019081526020016000206000828254610a2091906123f7565b9250508190555050565b610a326110b7565b610a3b57600080fd5b610a436112ec565b600080821415610c685760005b600280549050811015610c6257604051602001610a6c90612577565b6040516020818303038152906040528051906020012060028281548110610a9657610a95612268565b5b9060005260206000209060050201600301600001604051602001610aba9190612620565b604051602081830303815290604052805190602001201415610c4f57600060028281548110610aec57610aeb612268565b5b906000526020600020906005020160010160009054906101000a900473ffffffffffffffffffffffffffffffffffffffff169050610b29816118f4565b612710610b366000610406565b612710610b436001610406565b610b4d91906122c6565b610b579190612666565b612710610b6491906123f7565b60028481548110610b7857610b77612268565b5b906000526020600020906005020160020154610b9491906122c6565b610b9e9190612666565b925060008173ffffffffffffffffffffffffffffffffffffffff1684604051610bc6906126c8565b60006040518083038185875af1925050503d8060008114610c03576040519150601f19603f3d011682016040523d82523d6000602084013e610c08565b606091505b5050905080610c4c576040517f08c379a0000000000000000000000000000000000000000000000000000000008152600401610c4390612729565b60405180910390fd5b50505b8080610c5a9061244d565b915050610a50565b50610e91565b60005b600280549050811015610e8f57604051602001610c8790612795565b6040516020818303038152906040528051906020012060028281548110610cb157610cb0612268565b5b9060005260206000209060050201600301600001604051602001610cd59190612620565b604051602081830303815290604052805190602001201415610e7c57600060028281548110610d0757610d06612268565b5b906000526020600020906005020160010160009054906101000a900473ffffffffffffffffffffffffffffffffffffffff169050612710610d486001610406565b612710610d556000610406565b610d5f91906122c6565b610d699190612666565b612710610d7691906123f7565b60028481548110610d8a57610d89612268565b5b906000526020600020906005020160020154610da691906122c6565b610db09190612666565b9250610dc4610dbf6000610406565b61198d565b610dcd8361198d565b60008173ffffffffffffffffffffffffffffffffffffffff1684604051610df3906126c8565b60006040518083038185875af1925050503d8060008114610e30576040519150601f19603f3d011682016040523d82523d6000602084013e610e35565b606091505b5050905080610e79576040517f08c379a0000000000000000000000000000000000000000000000000000000008152600401610e7090612729565b60405180910390fd5b50505b8080610e879061244d565b915050610c6b565b505b600060058190555060006003600081548110610eb057610eaf612268565b5b90600052602060002090600202016001018190555060006003600181548110610edc57610edb612268565b5b90600052602060002090600202016001018190555060005b600280549050811015610f9e5760006006600060028481548110610f1b57610f1a612268565b5b906000526020600020906005020160010160009054906101000a900473ffffffffffffffffffffffffffffffffffffffff1673ffffffffffffffffffffffffffffffffffffffff1673ffffffffffffffffffffffffffffffffffffffff168152602001908152602001600020819055508080610f969061244d565b915050610ef4565b505050565b60066020528060005260406000206000915090505481565b610fc36110b7565b610fcc57600080fd5b600073ffffffffffffffffffffffffffffffffffffffff16600160009054906101000a900473ffffffffffffffffffffffffffffffffffffffff1673ffffffffffffffffffffffffffffffffffffffff167f8be0079c531659141344cd1fd0a4f28419497f9722a3daafe3b4186f6b6457e060405160405180910390a36000600160006101000a81548173ffffffffffffffffffffffffffffffffffffffff021916908373ffffffffffffffffffffffffffffffffffffffff160217905550565b6000600160009054906101000a900473ffffffffffffffffffffffffffffffffffffffff16905090565b6000600160009054906101000a900473ffffffffffffffffffffffffffffffffffffffff1673ffffffffffffffffffffffffffffffffffffffff163373ffffffffffffffffffffffffffffffffffffffff1614905090565b6003604051806040016040528083815260200160008152509080600181540180825580915050600190039060005260206000209060020201600090919091909150600082015181600001908051906020019061116c929190611b49565b5060208201518160010155505050565b806000803373ffffffffffffffffffffffffffffffffffffffff1673ffffffffffffffffffffffffffffffffffffffff1681526020019081526020016000205410156111fd576040517f08c379a00000000000000000000000000000000000000000000000000000000081526004016111f49061236c565b60405180910390fd5b7fddf252ad1be2c89b69c2b068fc378daa952ba7f163c4a11628f55a4df523b3ef3383836040516112309392919061238c565b60405180910390a1806000803373ffffffffffffffffffffffffffffffffffffffff1673ffffffffffffffffffffffffffffffffffffffff168152602001908152602001600020600082825461128691906123c3565b92505081905550806000808473ffffffffffffffffffffffffffffffffffffffff1673ffffffffffffffffffffffffffffffffffffffff16815260200190815260200160002060008282546112db91906123f7565b925050819055505050565b60055481565b7fe1fffcc4923d04b559f4d29a8bfc6cda04eb5b0d3c460751c2402c5c5cc9109c333460405161131d9291906124f7565b60405180910390a1346000803373ffffffffffffffffffffffffffffffffffffffff1673ffffffffffffffffffffffffffffffffffffffff168152602001908152602001600020600082825461137391906123f7565b92505081905550565b600460009054906101000a900473ffffffffffffffffffffffffffffffffffffffff1673ffffffffffffffffffffffffffffffffffffffff163373ffffffffffffffffffffffffffffffffffffffff16141561140d576040517f08c379a0000000000000000000000000000000000000000000000000000000008152600401611404906127f6565b60405180910390fd5b6000600660003373ffffffffffffffffffffffffffffffffffffffff1673ffffffffffffffffffffffffffffffffffffffff168152602001908152602001600020541461148f576040517f08c379a000000000000000000000000000000000000000000000000000000000815260040161148690612862565b60405180910390fd5b662386f26fc1000034116114d8576040517f08c379a00000000000000000000000000000000000000000000000000000000081526004016114cf906128ce565b60405180910390fd5b6114e06112ec565b600260405180608001604052808481526020013373ffffffffffffffffffffffffffffffffffffffff1681526020013481526020016003848154811061152957611528612268565b5b9060005260206000209060020201604051806040016040529081600082018054611552906124c5565b80601f016020809104026020016040519081016040528092919081815260200182805461157e906124c5565b80156115cb5780601f106115a0576101008083540402835291602001916115cb565b820191906000526020600020905b8154815290600101906020018083116115ae57829003601f168201915b5050505050815260200160018201548152505081525090806001815401808255809150506001900390600052602060002090600502016000909190919091506000820151816000019080519060200190611626929190611b49565b5060208201518160010160006101000a81548173ffffffffffffffffffffffffffffffffffffffff021916908373ffffffffffffffffffffffffffffffffffffffff16021790555060408201518160020155606082015181600301600082015181600001908051906020019061169d929190611b49565b50602082015181600101555050505060008114156116f3573460036000815481106116cb576116ca612268565b5b906000526020600020906002020160010160008282546116eb91906123f7565b925050819055505b600181141561173a5734600360018154811061171257611711612268565b5b9060005260206000209060020201600101600082825461173291906123f7565b925050819055505b600660003373ffffffffffffffffffffffffffffffffffffffff1673ffffffffffffffffffffffffffffffffffffffff168152602001908152602001600020600081548092919061178a9061244d565b91905055506000600460009054906101000a900473ffffffffffffffffffffffffffffffffffffffff1673ffffffffffffffffffffffffffffffffffffffff16346040516117d7906126c8565b60006040518083038185875af1925050503d8060008114611814576040519150601f19603f3d011682016040523d82523d6000602084013e611819565b606091505b505090508061185d576040517f08c379a000000000000000000000000000000000000000000000000000000000815260040161185490612729565b60405180910390fd5b346005600082825461186f91906123f7565b925050819055507f948a46eba9469fc822b082631d32f2456ea94a35179d32230095b6f34fb341cb3334600385815481106118ad576118ac612268565b5b90600052602060002090600202016040516118ca939291906129e8565b60405180910390a1505050565b6118df6110b7565b6118e857600080fd5b6118f181611a26565b50565b61198a81604051602401611908919061207d565b6040516020818303038152906040527f2c2ecbc2000000000000000000000000000000000000000000000000000000007bffffffffffffffffffffffffffffffffffffffffffffffffffffffff19166020820180517bffffffffffffffffffffffffffffffffffffffffffffffffffffffff8381831617835250505050611b20565b50565b611a23816040516024016119a19190611c72565b6040516020818303038152906040527ff5b1bba9000000000000000000000000000000000000000000000000000000007bffffffffffffffffffffffffffffffffffffffffffffffffffffffff19166020820180517bffffffffffffffffffffffffffffffffffffffffffffffffffffffff8381831617835250505050611b20565b50565b600073ffffffffffffffffffffffffffffffffffffffff168173ffffffffffffffffffffffffffffffffffffffff161415611a6057600080fd5b8073ffffffffffffffffffffffffffffffffffffffff16600160009054906101000a900473ffffffffffffffffffffffffffffffffffffffff1673ffffffffffffffffffffffffffffffffffffffff167f8be0079c531659141344cd1fd0a4f28419497f9722a3daafe3b4186f6b6457e060405160405180910390a380600160006101000a81548173ffffffffffffffffffffffffffffffffffffffff021916908373ffffffffffffffffffffffffffffffffffffffff16021790555050565b60008151905060006a636f6e736f6c652e6c6f679050602083016000808483855afa5050505050565b828054611b55906124c5565b90600052602060002090601f016020900481019282611b775760008555611bbe565b82601f10611b9057805160ff1916838001178555611bbe565b82800160010185558215611bbe579182015b82811115611bbd578251825591602001919060010190611ba2565b5b509050611bcb9190611bcf565b5090565b5b80821115611be8576000816000905550600101611bd0565b5090565b6000604051905090565b600080fd5b600080fd5b6000819050919050565b611c1381611c00565b8114611c1e57600080fd5b50565b600081359050611c3081611c0a565b92915050565b600060208284031215611c4c57611c4b611bf6565b5b6000611c5a84828501611c21565b91505092915050565b611c6c81611c00565b82525050565b6000602082019050611c876000830184611c63565b92915050565b600080fd5b6000601f19601f8301169050919050565b7f4e487b7100000000000000000000000000000000000000000000000000000000600052604160045260246000fd5b611cdb82611c92565b810181811067ffffffffffffffff82111715611cfa57611cf9611ca3565b5b80604052505050565b6000611d0d611bec565b9050611d198282611cd2565b919050565b600067ffffffffffffffff821115611d3957611d38611ca3565b5b602082029050602081019050919050565b600080fd5b600073ffffffffffffffffffffffffffffffffffffffff82169050919050565b6000611d7a82611d4f565b9050919050565b611d8a81611d6f565b8114611d9557600080fd5b50565b600081359050611da781611d81565b92915050565b6000611dc0611dbb84611d1e565b611d03565b90508083825260208201905060208402830185811115611de357611de2611d4a565b5b835b81811015611e0c5780611df88882611d98565b845260208401935050602081019050611de5565b5050509392505050565b600082601f830112611e2b57611e2a611c8d565b5b8135611e3b848260208601611dad565b91505092915050565b60008060408385031215611e5b57611e5a611bf6565b5b600083013567ffffffffffffffff811115611e7957611e78611bfb565b5b611e8585828601611e16565b9250506020611e9685828601611c21565b9150509250929050565b600081519050919050565b600082825260208201905092915050565b60005b83811015611eda578082015181840152602081019050611ebf565b83811115611ee9576000848401525b50505050565b6000611efa82611ea0565b611f048185611eab565b9350611f14818560208601611ebc565b611f1d81611c92565b840191505092915050565b611f3181611d6f565b82525050565b600082825260208201905092915050565b6000611f5382611ea0565b611f5d8185611f37565b9350611f6d818560208601611ebc565b611f7681611c92565b840191505092915050565b611f8a81611c00565b82525050565b60006040830160008301518482036000860152611fad8282611f48565b9150506020830151611fc26020860182611f81565b508091505092915050565b60006080820190508181036000830152611fe78187611eef565b9050611ff66020830186611f28565b6120036040830185611c63565b81810360608301526120158184611f90565b905095945050505050565b60006020828403121561203657612035611bf6565b5b600061204484828501611d98565b91505092915050565b600060408201905081810360008301526120678185611eef565b90506120766020830184611c63565b9392505050565b60006020820190506120926000830184611f28565b92915050565b60008115159050919050565b6120ad81612098565b82525050565b60006020820190506120c860008301846120a4565b92915050565b600080fd5b600067ffffffffffffffff8211156120ee576120ed611ca3565b5b6120f782611c92565b9050602081019050919050565b82818337600083830152505050565b6000612126612121846120d3565b611d03565b905082815260208101848484011115612142576121416120ce565b5b61214d848285612104565b509392505050565b600082601f83011261216a57612169611c8d565b5b813561217a848260208601612113565b91505092915050565b60006020828403121561219957612198611bf6565b5b600082013567ffffffffffffffff8111156121b7576121b6611bfb565b5b6121c384828501612155565b91505092915050565b600080604083850312156121e3576121e2611bf6565b5b60006121f185828601611d98565b925050602061220285828601611c21565b9150509250929050565b6000806040838503121561222357612222611bf6565b5b600083013567ffffffffffffffff81111561224157612240611bfb565b5b61224d85828601612155565b925050602061225e85828601611c21565b9150509250929050565b7f4e487b7100000000000000000000000000000000000000000000000000000000600052603260045260246000fd5b7f4e487b7100000000000000000000000000000000000000000000000000000000600052601160045260246000fd5b60006122d182611c00565b91506122dc83611c00565b9250817fffffffffffffffffffffffffffffffffffffffffffffffffffffffffffffffff048311821515161561231557612314612297565b5b828202905092915050565b7f496e73756666696369656e742066756e64730000000000000000000000000000600082015250565b6000612356601283611eab565b915061236182612320565b602082019050919050565b6000602082019050818103600083015261238581612349565b9050919050565b60006060820190506123a16000830186611f28565b6123ae6020830185611f28565b6123bb6040830184611c63565b949350505050565b60006123ce82611c00565b91506123d983611c00565b9250828210156123ec576123eb612297565b5b828203905092915050565b600061240282611c00565b915061240d83611c00565b9250827fffffffffffffffffffffffffffffffffffffffffffffffffffffffffffffffff0382111561244257612441612297565b5b828201905092915050565b600061245882611c00565b91507fffffffffffffffffffffffffffffffffffffffffffffffffffffffffffffffff82141561248b5761248a612297565b5b600182019050919050565b7f4e487b7100000000000000000000000000000000000000000000000000000000600052602260045260246000fd5b600060028204905060018216806124dd57607f821691505b602082108114156124f1576124f0612496565b5b50919050565b600060408201905061250c6000830185611f28565b6125196020830184611c63565b9392505050565b600081905092915050565b7f7465616d31000000000000000000000000000000000000000000000000000000600082015250565b6000612561600583612520565b915061256c8261252b565b600582019050919050565b600061258282612554565b9150819050919050565b60008190508160005260206000209050919050565b600081546125ae816124c5565b6125b88186612520565b945060018216600081146125d357600181146125e457612617565b60ff19831686528186019350612617565b6125ed8561258c565b60005b8381101561260f578154818901526001820191506020810190506125f0565b838801955050505b50505092915050565b600061262c82846125a1565b915081905092915050565b7f4e487b7100000000000000000000000000000000000000000000000000000000600052601260045260246000fd5b600061267182611c00565b915061267c83611c00565b92508261268c5761268b612637565b5b828204905092915050565b600081905092915050565b50565b60006126b2600083612697565b91506126bd826126a2565b600082019050919050565b60006126d3826126a5565b9150819050919050565b7f4661696c656420746f2073656e64204574686572000000000000000000000000600082015250565b6000612713601483611eab565b915061271e826126dd565b602082019050919050565b6000602082019050818103600083015261274281612706565b9050919050565b7f7465616d32000000000000000000000000000000000000000000000000000000600082015250565b600061277f600583612520565b915061278a82612749565b600582019050919050565b60006127a082612772565b9150819050919050565b7f6f776e65722063616e2774206d616b6520612062657400000000000000000000600082015250565b60006127e0601683611eab565b91506127eb826127aa565b602082019050919050565b6000602082019050818103600083015261280f816127d3565b9050919050565b7f796f75206861766520616c726561647920706c61636564206120626574000000600082015250565b600061284c601d83611eab565b915061285782612816565b602082019050919050565b6000602082019050818103600083015261287b8161283f565b9050919050565b7f626574206d6f7265000000000000000000000000000000000000000000000000600082015250565b60006128b8600883611eab565b91506128c382612882565b602082019050919050565b600060208201905081810360008301526128e7816128ab565b9050919050565b600081546128fb816124c5565b6129058186611f37565b94506001821660008114612920576001811461293257612965565b60ff1983168652602086019350612965565b61293b8561258c565b60005b8381101561295d5781548189015260018201915060208101905061293e565b808801955050505b50505092915050565b60008160001c9050919050565b6000819050919050565b60006129986129938361296e565b61297b565b9050919050565b600060408301600080840185830360008701526129bc83826128ee565b925050600184015490506129cf81612985565b6129dc6020870182611f81565b50819250505092915050565b60006060820190506129fd6000830186611f28565b612a0a6020830185611c63565b8181036040830152612a1c818461299f565b905094935050505056fea2646970667358221220eb0a3bf870e37c3a4cc609300ad9860ed9e405f638b3946aef789f3338ad544464736f6c634300080b0033",
  "immutableReferences": {},
  "source": "//SPDX-License-Identifier: MIT\r\npragma solidity 0.8.11;\r\n\r\nimport \"./ownable.sol\";\r\nimport \"./ATM.sol\";\r\nimport \"./console.sol\";\r\n\r\ncontract bet is ATM, Ownable {\r\n\r\n    event NewBet(\r\n        address addy, \r\n        uint amount, \r\n        Team teamBet\r\n    );\r\n\r\n    struct Bet {\r\n        string name;\r\n        address addy;\r\n        uint amount;\r\n        Team teamBet;\r\n    }\r\n\r\n    struct Team {\r\n        string name;\r\n        uint totalBetAmount;\r\n    }\r\n\r\n    Bet[] public bets;\r\n    Team[] public teams;\r\n    \r\n    address payable conOwner;\r\n    uint public totalBetMoney = 0;\r\n\r\n    mapping (address => uint) public numBetsAddress;\r\n\r\n\r\n    constructor() payable {\r\n        conOwner = payable(msg.sender);\r\n        teams.push(Team(\"team1\", 0));\r\n        teams.push(Team(\"team2\", 0));\r\n\r\n    }\r\n\r\n    function createTeam (string memory _name) public {\r\n        teams.push(Team(_name, 0));\r\n    }\r\n\r\n    function getTotalBetAmount (uint _teamId) public view returns (uint) {\r\n        return teams[_teamId].totalBetAmount;\r\n    }\r\n    \r\n    function createBet (string memory _name, uint _teamId) external payable {       \r\n        require (msg.sender != conOwner, \"owner can't make a bet\");\r\n        require (numBetsAddress[msg.sender] == 0, \"you have already placed a bet\");\r\n        require (msg.value > 0.01 ether, \"bet more\");\r\n\r\n        deposit();\r\n\r\n        bets.push(Bet(_name, msg.sender, msg.value, teams[_teamId]));\r\n\r\n        if (_teamId == 0) {\r\n            teams[0].totalBetAmount += msg.value;\r\n        } \r\n        if (_teamId == 1) {\r\n            teams[1].totalBetAmount += msg.value;\r\n        }\r\n\r\n        numBetsAddress[msg.sender]++;\r\n        \r\n        (bool sent, ) = conOwner.call{value: msg.value}(\"\");\r\n        require(sent, \"Failed to send Ether\");\r\n\r\n        totalBetMoney += msg.value;\r\n\r\n        emit NewBet(msg.sender, msg.value, teams[_teamId]);\r\n\r\n    }\r\n\r\n    function teamWinDistribution(uint _teamId) public payable onlyOwner() {\r\n        \r\n        deposit();\r\n        uint div;\r\n                \r\n        if (_teamId == 0) {\r\n            for (uint i = 0; i < bets.length; i++) {\r\n                if (keccak256(abi.encodePacked((bets[i].teamBet.name))) == keccak256(abi.encodePacked(\"team1\"))) {\r\n                    address payable receiver = payable(bets[i].addy);\r\n                    console.log(receiver);\r\n                    div = (bets[i].amount * (10000 + (getTotalBetAmount(1) * 10000 / getTotalBetAmount(0)))) / 10000;\r\n\r\n                    (bool sent,) = receiver.call{ value: div }(\"\");\r\n                    require(sent, \"Failed to send Ether\");\r\n                    \r\n                }\r\n            }\r\n        } else {\r\n            for (uint i = 0; i < bets.length; i++) {\r\n                if (keccak256(abi.encodePacked((bets[i].teamBet.name))) == keccak256(abi.encodePacked(\"team2\"))) {\r\n                    address payable receiver = payable(bets[i].addy);\r\n                    div = (bets[i].amount * (10000 + (getTotalBetAmount(0) * 10000 / getTotalBetAmount(1)))) / 10000;\r\n                    console.log(getTotalBetAmount(0));\r\n                    console.log(div);\r\n\r\n                    (bool sent, ) = receiver.call{ value: div }(\"\");\r\n                    require(sent, \"Failed to send Ether\");\r\n                }\r\n            }\r\n        }\r\n\r\n        totalBetMoney = 0;\r\n        teams[0].totalBetAmount = 0;\r\n        teams[1].totalBetAmount = 0;\r\n\r\n        for (uint i = 0; i < bets.length; i++) {\r\n            numBetsAddress[bets[i].addy] = 0;\r\n        }\r\n\r\n    }\r\n\r\n}",
  "sourcePath": "D:\\VSCODE\\BlockChain\\FazeBetting\\src\\contracts\\bet.sol",
  "compiler": {
    "name": "solc",
    "version": "0.8.11+commit.d7f03943.Emscripten.clang"
  },
  "schemaVersion": "3.4.16",
  "updatedAt": "2023-11-27T01:30:49.227Z",
  "networkType": "ethereum",
  "devdoc": {
    "kind": "dev",
    "methods": {
      "isOwner()": {
        "returns": {
          "_0": "true if `msg.sender` is the owner of the contract."
        }
      },
      "owner()": {
        "returns": {
          "_0": "the address of the owner."
        }
      },
      "renounceOwnership()": {
        "details": "Allows the current owner to relinquish control of the contract."
      },
      "transferOwnership(address)": {
        "details": "Allows the current owner to transfer control of the contract to a newOwner.",
        "params": {
          "newOwner": "The address to transfer ownership to."
        }
      }
    },
    "version": 1
  },
  "userdoc": {
    "kind": "user",
    "methods": {
      "renounceOwnership()": {
        "notice": "Renouncing to ownership will leave the contract without an owner. It will not be possible to call the functions with the `onlyOwner` modifier anymore."
      }
    },
    "version": 1
  }
}